{
  "contractName": "Betting",
  "abi": [
    {
      "constant": true,
      "inputs": [],
      "name": "contestid",
      "outputs": [
        {
          "name": "",
          "type": "uint256"
        }
      ],
      "payable": false,
      "stateMutability": "view",
      "type": "function",
      "signature": "0x2d337bbf"
    },
    {
      "inputs": [],
      "payable": false,
      "stateMutability": "nonpayable",
      "type": "constructor",
      "signature": "constructor"
    },
    {
      "payable": true,
      "stateMutability": "payable",
      "type": "fallback"
    },
    {
      "anonymous": false,
      "inputs": [
        {
          "indexed": false,
          "name": "contestid",
          "type": "uint256"
        },
        {
          "indexed": false,
          "name": "teams",
          "type": "uint64"
        }
      ],
      "name": "contestentereds",
      "type": "event",
      "signature": "0xe82cf108a58dc4c5d00f35570cf8a1cf36b782a8f449247b92c6922b76e6cc01"
    },
    {
      "constant": false,
      "inputs": [
        {
          "name": "_contestid",
          "type": "uint256"
        },
        {
          "name": "_teams",
          "type": "uint64"
        }
      ],
      "name": "joincontest",
      "outputs": [],
      "payable": false,
      "stateMutability": "nonpayable",
      "type": "function",
      "signature": "0x73c09082"
    },
    {
      "constant": false,
      "inputs": [],
      "name": "sendwinner",
      "outputs": [],
      "payable": true,
      "stateMutability": "payable",
      "type": "function",
      "signature": "0x5ada7ad1"
    }
  ],
  "bytecode": "0x6080604052600160005534801561001557600080fd5b506000600160006001815260200190815260200160002060000181905550610257806100426000396000f3fe608060405260043610610057576000357c0100000000000000000000000000000000000000000000000000000000900463ffffffff1680632d337bbf146100595780635ada7ad11461008457806373c090821461008e575b005b34801561006557600080fd5b5061006e6100dd565b6040518082815260200191505060405180910390f35b61008c6100e3565b005b34801561009a57600080fd5b506100db600480360360408110156100b157600080fd5b8101908080359060200190929190803567ffffffffffffffff169060200190929190505050610134565b005b60005481565b3373ffffffffffffffffffffffffffffffffffffffff166108fc670de0b6b3a76400009081150290604051600060405180830381858888f19350505050158015610131573d6000803e3d6000fd5b50565b806001600084815260200190815260200160002060010160003373ffffffffffffffffffffffffffffffffffffffff1673ffffffffffffffffffffffffffffffffffffffff16815260200190815260200160002060006101000a81548167ffffffffffffffff021916908367ffffffffffffffff16021790555060016000838152602001908152602001600020600001600081548092919060010191905055507fe82cf108a58dc4c5d00f35570cf8a1cf36b782a8f449247b92c6922b76e6cc018282604051808381526020018267ffffffffffffffff1667ffffffffffffffff1681526020019250505060405180910390a1505056fea165627a7a72305820c865d5f8866e964a313c97aa6116f057c987f459ec3542f948616b5bdc7d579f0029",
  "source": "pragma solidity ^0.5.0;\r\n\r\ncontract Betting {\r\n\r\n    uint public contestid = 1;\r\n\r\n    struct contestentered {\r\n        uint users;\r\n        mapping(address => uint64) teamsmap;   \r\n    }\r\n\r\n    mapping(uint => contestentered) contests;\r\n    \r\n    event contestentereds(\r\n        uint contestid,\r\n        uint64 teams\r\n    );\r\n    \r\n\r\n    constructor() public {\r\n        contests[1].users=0;\r\n        //joincontest(1, 397);\r\n    }\r\n\r\n    function joincontest(uint _contestid, uint64 _teams) public\r\n    {\r\n        contests[_contestid].teamsmap[msg.sender]= _teams;\r\n        contests[_contestid].users++;\r\n        emit contestentereds(_contestid, _teams);\r\n    }\r\n\r\n    function sendwinner() public payable {\r\n       msg.sender.transfer(1 ether);\r\n            }\r\n\r\n    function() external payable { }\r\n\r\n}",
  "sourcePath": "C:/Users/Raj/Documents/Dream11/src/contracts/Betting.sol",
  "compiler": {
    "name": "solc",
    "version": "0.5.0+commit.1d4f565a.Emscripten.clang"
  },
  "schemaVersion": "3.0.2",
  "updatedAt": "2021-04-30T07:54:35.609Z",
  "devdoc": {
    "methods": {}
  },
  "userdoc": {
    "methods": {}
  }
}