{
  "contractName": "Betting",
  "abi": [
    {
      "constant": true,
      "inputs": [],
      "name": "contestid",
      "outputs": [
        {
          "name": "",
          "type": "uint256"
        }
      ],
      "payable": false,
      "stateMutability": "view",
      "type": "function",
      "signature": "0x2d337bbf"
    },
    {
      "constant": true,
      "inputs": [
        {
          "name": "",
          "type": "uint256"
        }
      ],
      "name": "contests",
      "outputs": [
        {
          "name": "users",
          "type": "uint256"
        }
      ],
      "payable": false,
      "stateMutability": "view",
      "type": "function",
      "signature": "0x9d7ed738"
    },
    {
      "constant": true,
      "inputs": [
        {
          "name": "",
          "type": "uint256"
        },
        {
          "name": "",
          "type": "uint256"
        }
      ],
      "name": "playersaddrs",
      "outputs": [
        {
          "name": "",
          "type": "address"
        }
      ],
      "payable": false,
      "stateMutability": "view",
      "type": "function",
      "signature": "0xee33e726"
    },
    {
      "inputs": [],
      "payable": false,
      "stateMutability": "nonpayable",
      "type": "constructor",
      "signature": "constructor"
    },
    {
      "payable": true,
      "stateMutability": "payable",
      "type": "fallback"
    },
    {
      "anonymous": false,
      "inputs": [
        {
          "indexed": false,
          "name": "contestid",
          "type": "uint256"
        },
        {
          "indexed": false,
          "name": "teams",
          "type": "uint64"
        }
      ],
      "name": "contestentereds",
      "type": "event",
      "signature": "0xe82cf108a58dc4c5d00f35570cf8a1cf36b782a8f449247b92c6922b76e6cc01"
    },
    {
      "constant": false,
      "inputs": [
        {
          "name": "_contestid",
          "type": "uint256"
        },
        {
          "name": "_teams",
          "type": "uint64"
        }
      ],
      "name": "joincontest",
      "outputs": [],
      "payable": false,
      "stateMutability": "nonpayable",
      "type": "function",
      "signature": "0x73c09082"
    },
    {
      "constant": false,
      "inputs": [
        {
          "name": "_winner",
          "type": "address"
        }
      ],
      "name": "sendwinner",
      "outputs": [],
      "payable": true,
      "stateMutability": "payable",
      "type": "function",
      "signature": "0xcbf9275a"
    },
    {
      "constant": true,
      "inputs": [
        {
          "name": "_contestid",
          "type": "uint256"
        },
        {
          "name": "_playernum",
          "type": "uint256"
        }
      ],
      "name": "getplayerteams",
      "outputs": [
        {
          "name": "",
          "type": "uint64"
        },
        {
          "name": "",
          "type": "address"
        }
      ],
      "payable": false,
      "stateMutability": "view",
      "type": "function",
      "signature": "0x196c5924"
    },
    {
      "constant": false,
      "inputs": [],
      "name": "createcontest",
      "outputs": [],
      "payable": false,
      "stateMutability": "nonpayable",
      "type": "function",
      "signature": "0xf50dc912"
    }
  ],
  "bytecode": "0x60806040526000805534801561001457600080fd5b506001602060405190810160405280600073ffffffffffffffffffffffffffffffffffffffff1673ffffffffffffffffffffffffffffffffffffffff168152509080600181540180825580915050906001820390600052602060002001600090919290919091509060016100899291906100ac565b505060016002600080815260200190815260200160002060000181905550610179565b828054828255906000526020600020908101928215610125579160200282015b828111156101245782518260006101000a81548173ffffffffffffffffffffffffffffffffffffffff021916908373ffffffffffffffffffffffffffffffffffffffff160217905550916020019190600101906100cc565b5b5090506101329190610136565b5090565b61017691905b8082111561017257600081816101000a81549073ffffffffffffffffffffffffffffffffffffffff02191690555060010161013c565b5090565b90565b6107d0806101886000396000f3fe608060405260043610610083576000357c0100000000000000000000000000000000000000000000000000000000900463ffffffff168063196c5924146100855780632d337bbf1461012557806373c09082146101505780639d7ed7381461019f578063cbf9275a146101ee578063ee33e72614610232578063f50dc912146102b7575b005b34801561009157600080fd5b506100c8600480360360408110156100a857600080fd5b8101908080359060200190929190803590602001909291905050506102ce565b604051808367ffffffffffffffff1667ffffffffffffffff1681526020018273ffffffffffffffffffffffffffffffffffffffff1673ffffffffffffffffffffffffffffffffffffffff1681526020019250505060405180910390f35b34801561013157600080fd5b5061013a6103e5565b6040518082815260200191505060405180910390f35b34801561015c57600080fd5b5061019d6004803603604081101561017357600080fd5b8101908080359060200190929190803567ffffffffffffffff1690602001909291905050506103eb565b005b3480156101ab57600080fd5b506101d8600480360360208110156101c257600080fd5b810190808035906020019092919050505061055f565b6040518082815260200191505060405180910390f35b6102306004803603602081101561020457600080fd5b81019080803573ffffffffffffffffffffffffffffffffffffffff16906020019092919050505061057d565b005b34801561023e57600080fd5b506102756004803603604081101561025557600080fd5b8101908080359060200190929190803590602001909291905050506105cf565b604051808273ffffffffffffffffffffffffffffffffffffffff1673ffffffffffffffffffffffffffffffffffffffff16815260200191505060405180910390f35b3480156102c357600080fd5b506102cc610627565b005b6000806002600085815260200190815260200160002060010160006001868154811015156102f857fe5b906000526020600020018581548110151561030f57fe5b9060005260206000200160009054906101000a900473ffffffffffffffffffffffffffffffffffffffff1673ffffffffffffffffffffffffffffffffffffffff1673ffffffffffffffffffffffffffffffffffffffff16815260200190815260200160002060009054906101000a900467ffffffffffffffff1660018581548110151561039857fe5b90600052602060002001848154811015156103af57fe5b9060005260206000200160009054906101000a900473ffffffffffffffffffffffffffffffffffffffff16915091509250929050565b60005481565b806002600084815260200190815260200160002060010160003373ffffffffffffffffffffffffffffffffffffffff1673ffffffffffffffffffffffffffffffffffffffff16815260200190815260200160002060006101000a81548167ffffffffffffffff021916908367ffffffffffffffff160217905550600260008381526020019081526020016000206000016000815480929190600101919050555060018281548110151561049a57fe5b906000526020600020013390806001815401808255809150509060018203906000526020600020016000909192909190916101000a81548173ffffffffffffffffffffffffffffffffffffffff021916908373ffffffffffffffffffffffffffffffffffffffff160217905550507fe82cf108a58dc4c5d00f35570cf8a1cf36b782a8f449247b92c6922b76e6cc018282604051808381526020018267ffffffffffffffff1667ffffffffffffffff1681526020019250505060405180910390a15050565b60026020528060005260406000206000915090508060000154905081565b8073ffffffffffffffffffffffffffffffffffffffff166108fc670de0b6b3a76400009081150290604051600060405180830381858888f193505050501580156105cb573d6000803e3d6000fd5b5050565b6001828154811015156105de57fe5b90600052602060002001818154811015156105f557fe5b906000526020600020016000915091509054906101000a900473ffffffffffffffffffffffffffffffffffffffff1681565b60008081548092919060010191905055506001602060405190810160405280600073ffffffffffffffffffffffffffffffffffffffff1673ffffffffffffffffffffffffffffffffffffffff168152509080600181540180825580915050906001820390600052602060002001600090919290919091509060016106ac9291906106d7565b5050600260008054815260200190815260200160002060000160008154809291906001019190505550565b828054828255906000526020600020908101928215610750579160200282015b8281111561074f5782518260006101000a81548173ffffffffffffffffffffffffffffffffffffffff021916908373ffffffffffffffffffffffffffffffffffffffff160217905550916020019190600101906106f7565b5b50905061075d9190610761565b5090565b6107a191905b8082111561079d57600081816101000a81549073ffffffffffffffffffffffffffffffffffffffff021916905550600101610767565b5090565b9056fea165627a7a72305820fdccf576eb42b378754618d7611e8b5ac4388bc75d001ff879228ae75ec803650029",
  "source": "pragma solidity ^0.5.0;\r\n\r\ncontract Betting {\r\n\r\n    uint public contestid = 0;\r\n\r\n    address[][] public playersaddrs;\r\n\r\n    struct contestentered {\r\n        uint users;\r\n        mapping(address => uint64) teamsmap;   \r\n    }\r\n\r\n    mapping(uint => contestentered) public contests;\r\n    \r\n    event contestentereds(\r\n        uint contestid,\r\n        uint64 teams\r\n    );\r\n    \r\n\r\n    constructor() public {\r\n        playersaddrs.push([address(0)]);\r\n        contests[0].users=1;\r\n        //joincontest(1, 397);\r\n    }\r\n\r\n    function joincontest(uint _contestid, uint64 _teams) public\r\n    {\r\n        contests[_contestid].teamsmap[msg.sender]= _teams;\r\n        contests[_contestid].users++;\r\n        playersaddrs[_contestid].push(msg.sender);\r\n        emit contestentereds(_contestid, _teams);\r\n    }\r\n\r\n    function sendwinner(address payable _winner) public payable {\r\n       _winner.transfer(1 ether);\r\n            }\r\n\r\n    function getplayerteams(uint _contestid, uint _playernum) public view returns(uint64, address) {\r\n        return (contests[_contestid].teamsmap[playersaddrs[_contestid][_playernum]], playersaddrs[_contestid][_playernum]);\r\n        //return contests[0].teamsmap[playersaddrs[0][1]];\r\n        //return playersaddrs[_contestid][_playernum];\r\n    }\r\n\r\n    function createcontest() public {\r\n        \r\n        contestid++;\r\n        playersaddrs.push([address(0)]);\r\n        contests[contestid].users++;\r\n\r\n\r\n    }\r\n\r\n    function() external payable { }\r\n\r\n}\r\n\r\n",
  "sourcePath": "C:/Users/Raj/Documents/Dream11/src/contracts/Betting.sol",
  "compiler": {
    "name": "solc",
    "version": "0.5.0+commit.1d4f565a.Emscripten.clang"
  },
  "schemaVersion": "3.0.2",
  "updatedAt": "2021-05-09T13:40:29.647Z",
  "devdoc": {
    "methods": {}
  },
  "userdoc": {
    "methods": {}
  }
}