{
  "contractName": "Ownable",
  "abi": [
    {
      "constant": true,
      "inputs": [],
      "name": "owner",
      "outputs": [
        {
          "name": "",
          "type": "address"
        }
      ],
      "payable": false,
      "stateMutability": "view",
      "type": "function"
    },
    {
      "inputs": [],
      "payable": false,
      "stateMutability": "nonpayable",
      "type": "constructor"
    }
  ],
  "bytecode": "0x608060405234801561001057600080fd5b50336000806101000a81548173ffffffffffffffffffffffffffffffffffffffff021916908373ffffffffffffffffffffffffffffffffffffffff16021790555060e98061005f6000396000f3fe608060405260043610603f576000357c0100000000000000000000000000000000000000000000000000000000900463ffffffff1680638da5cb5b146044575b600080fd5b348015604f57600080fd5b5060566098565b604051808273ffffffffffffffffffffffffffffffffffffffff1673ffffffffffffffffffffffffffffffffffffffff16815260200191505060405180910390f35b6000809054906101000a900473ffffffffffffffffffffffffffffffffffffffff168156fea165627a7a7230582051c3e7c8fc7293d3a8c4edd73c5b6d991aa07bc264b9a7e8d2f35807ee320e810029",
  "source": "pragma solidity ^0.5.0;\r\n\r\ncontract Ownable {\r\n    address public owner;\r\n\r\n    constructor() public {\r\n        owner = msg.sender;\r\n    }\r\n\r\n    modifier onlyOwner {\r\n        require(msg.sender == owner);\r\n        _;\r\n    }\r\n\r\n}\r\n\r\ncontract Betting is Ownable {\r\n\r\n    address[][][] public playersaddrs;\r\n\r\n    struct contestentered {\r\n        uint users;\r\n        mapping(address => uint64) teamsmap;   \r\n    }\r\n\r\n    struct contestsinmatch {\r\n        uint contestid;\r\n        mapping(uint => contestentered) contests;\r\n    }\r\n\r\n    mapping(uint => contestsinmatch) public matches;\r\n    \r\n    event contestentereds(\r\n        uint contestid,\r\n        uint64 teams,\r\n        uint matchid\r\n    );\r\n    \r\n\r\n    constructor() public {\r\n        //playersaddrs.push([address(0)]);\r\n        //contests[0].users=1;\r\n        matches[0].contestid=0;\r\n        matches[0].contests[0].users=1;\r\n        playersaddrs.push([[address(0)]]);\r\n    }\r\n\r\n    function joincontest(uint _contestid, uint _matchid, uint64 _teams) public\r\n    {\r\n        matches[_matchid].contests[_contestid].teamsmap[msg.sender]= _teams;\r\n        matches[_matchid].contests[_contestid].users++;\r\n        playersaddrs[_matchid][_contestid].push(msg.sender);\r\n        emit contestentereds(_contestid, _teams, _matchid);\r\n    }\r\n\r\n    function sendwinner(address payable _winner, uint _matchid, uint _contestid) public payable onlyOwner{\r\n       uint amount = (matches[_matchid].contests[_contestid].users);\r\n       uint tosend = amount*(1.8 ether);\r\n       _winner.transfer(tosend);\r\n            }\r\n\r\n    function getcontests(uint _matchid) public view returns(uint) {\r\n        return(matches[_matchid].contestid);\r\n    }\r\n\r\n    function getusers(uint _matchid, uint _contestid) public view returns(uint){\r\n        return(matches[_matchid].contests[_contestid].users);\r\n    }\r\n\r\n    function getplayerteams(uint _contestid, uint _matchid, uint _playernum) public view returns(uint64, address) {\r\n        return (matches[_matchid].contests[_contestid].teamsmap[playersaddrs[_matchid][_contestid][_playernum]], playersaddrs[_matchid][_contestid][_playernum]);\r\n        //return contests[0].teamsmap[playersaddrs[0][1]];\r\n        //return playersaddrs[_contestid][_playernum];\r\n    }\r\n\r\n    function createcontest(uint _matchid) public {\r\n        \r\n        matches[_matchid].contestid++;\r\n        playersaddrs[_matchid].push([address(0)]);\r\n        matches[_matchid].contests[matches[_matchid].contestid].users++;\r\n\r\n\r\n    }\r\n\r\n    function addmatch(uint _matchid) public onlyOwner {\r\n        matches[_matchid].contestid=0;\r\n        matches[_matchid].contests[0].users=1;\r\n        playersaddrs.push([[address(0)]]);\r\n    }\r\n\r\n    function() external payable { }\r\n\r\n}\r\n\r\n",
  "sourcePath": "C:/Users/Raj/Documents/Dream11/src/contracts/Betting.sol",
  "compiler": {
    "name": "solc",
    "version": "0.5.0+commit.1d4f565a.Emscripten.clang"
  },
  "schemaVersion": "3.0.2",
  "updatedAt": "2021-05-24T14:01:16.364Z",
  "devdoc": {
    "methods": {}
  },
  "userdoc": {
    "methods": {}
  }
}